:060000000A128A110C280F
:10000800FE00030EF1000A08F2000A128A112F29D5
:100018000A128A110F28F701F801F901FA01830180
:100028000A128A116D28F5008316031381127508C8
:10003800031D1F28202822288115442881114428BF
:100048000110811001116628011481100111662820
:100058000110811401116628011481140111662808
:1000680001108110011566280114811001156628F8
:1000780001108114011566280114811401156628E0
:100088007508F300F4017408003A03194C2866282F
:100098007308023A03192428063A031928280C3A47
:1000A80003192C28183A03193028303A0319342830
:1000B800603A03193828C03A03193C287F3A0319D3
:1000C800402866283D308312031381008B160B11DC
:1000D80008000A128A11FC200A128A1183120313DB
:1000E8008713523083120313A000A00B7928000055
:1000F80077080A128A1178210A128A117908031DD1
:10010800862887289E280A128A1168210A128A11CD
:1001180083120313A0002008F800F901F90A5230ED
:1001280083120313A000A00B972800008312031367
:100138008717B0280A128A1168210A128A118312B5
:1001480003138600523083120313A000A00BAA28C1
:100158000000831203138717213083120313A100B1
:100168007530A000A00BB628A10BB628BB287228B2
:100178000A128A110C28F5007508F300F30E83168D
:1001880003130F0873068F3973068F00E5280F08CD
:100198008F3940388F000F14FB280F088F395038DB
:1001A8008F000F14FB280F088F3960388F000F1449
:1001B800FB2870308F040F14FB2870308F040F1445
:1001C800FB287508F300F4017408003A0319ED28B8
:1001D800E1287308003A0319CB28013A0319D128FA
:1001E800033A0319D728013A0319DD28E128080042
:1001F8008316031788018901831603138601831266
:1002080003138601831603138713831203138717B7
:10021800831603138801831203138801F301F40181
:10022800F50120300A128A1152210A128A11FF3070
:100238000A128A1117200A128A110A128A117E21BB
:100248000A128A1100300A128A11BF200A128A1172
:100258008B170B1708000B1D322933294B29013046
:10026800F0007008FA0705307A06031D3C293D297D
:1002780046290130F0007008F70777088312031346
:100288008600FA010A128A1184210A128A11720858
:100298008A00710E8300FE0E7E0E0900F60083169A
:1002A80003138712761D59295A295E297508940067
:1002B80087156229730875049400871176087404F9
:1002C80083120313940008000A128A1171210A127A
:1002D8008A11831203131308080083160313141CCE
:1002E8007629772971290800F3007308831203130C
:1002F800930008003D308312031381000B1108009E
:0C0308003D308312031381000B1108002C
:08400000FF3FFF3FFF3FFF3FC0
:04400E00D420FF3F7C
:00000001FF
